:04000000A5EF00F078
:1000080000C015F0F2A241D0F292060E0B6E130E4C
:100018000C6EAD0E0D6E0D2EFED70C2EFCD70B2ED2
:10002800FAD700000000F2A218D0160E2E6E000EAD
:100038002F6E35D88382060E0B6E130E0C6EAD0E26
:100048000D6E0D2EFED70C2EFCD70B2EFAD7000006
:10005800000083923CD8F29218D01B0E2E6E000E30
:100068002F6E1DD8010E836E060E0B6E130E0C6ECE
:10007800AD0E0D6E0D2EFED70C2EFCD70B2EFAD71B
:1000880000000000836A23D8F29215C000F0110026
:0E009800ACB202D00000FCD732C0ADFF1200A7
:1000A600316A2EC0E9FF2FC0EAFFEECF30F03050A4
:1000B600000A0DE030C032F0ECDF312A31502E2438
:1000C600E96E000E2F20EA6EEECF30F0F0D7120068
:0E00D6000D0E326EDEDF0A0E326EDBDF120020
:1000E4000900F5CFE6FF0006FBE10106F9E1120085
:1000F400980E266E000E276E320E286E000E296EA4
:10010400FF0E2A6EFF0E2B6E000E2C6E000E2D6E4F
:10011400FF0E1E6EFF0E1F6E000E206E000E216E6F
:10012400FF0E226EFF0E236E000E246E000E256E4F
:10013400AC8A900EAB6E948E949C9EAA03D0AECFE4
:0601440000F0FBD71200E1
:10014A00440E166E6F0E176E770E186E6E0E196EBF
:10015A001A6A550E1B6E700E1C6E1D6AFF0E936E88
:10016A00956AF28EF288F292330EAF6EAC84BDDFDE
:06017A000300FED7FFD7D1
:020000040030CA
:0D000100220F0EFF0181FF0FC00FE00F4026
:00000001FF
