:1000000062EF01F00000000000EF00F000000000CF
:0A0010000000000000000000F3D71C
:0A001C00210E0D6E0D2EFED712000E
:100026000F0E0C6E470E0D6E0D2EFED70C2EFCD746
:06003600000000001200B2
:06003C00000000001200AC
:100042003BBE02D0819E01D0818E3BBC02D0819CFE
:1000520001D0818C3BBA02D0819A01D0818A3BB80F
:1000620002D0819801D0818834B002D0818001D041
:1000720081908182E2DF81923BB602D0819E01D0E3
:10008200818E3BB402D0819C01D0818C3BB202D0E4
:10009200819A01D0818A3BB002D0819801D08188B7
:1000A20034B002D0818001D081908182C6DF8192FA
:0C00B20034A002D0B7DF01D0B0DF120094
:0C00BE0034903AC03BF0BEDF34801200EA
:1000CA00AECF01F0ABA202D0AB98AB8801C000F072
:0200DA00120012
:0A00DC00000E9EBA010E006E120025
:1000E6000FD0800E356E19D0C00E356E16D0940E18
:1000F600356E13D0D40E356E10D0800E356E0DD001
:100106003550010AEEE03550020AEEE03550030A9A
:10011600EEE03550040AEEE0F0D73604006E3550B6
:10012600002600C035F000C03BF088DF3490396A05
:1001360039503724E96E000E3820EA6EEE520BE095
:1001460039503724E96E000E3820EA6EEECF3AF0C9
:0A015600B3DF392AEDD73480120020
:10016000939293909398939A939C939E819281906B
:10017000819E819C819A819856DF55DF54DF818A68
:10018000818881825BDF81924EDF818257DF81929D
:100190004ADF818253DF819246DF819881824EDF80
:1001A000819241DF81824ADF8192819A818E8182B0
:1001B00045DF819238DF819E818881823FDF819295
:1001C000819881823BDF81922EDF818237DF8192AD
:1001D0008188818233DF819226DF819881822EDFC0
:1001E0008192818E818C818A8188818227DF8192B0
:0601F0001ADF348012004A
:1001F6000900F5CFE6FF0006FBE10106F9E1120072
:100206000FD0800E356E19D0C00E356E16D0940EF6
:10021600356E13D0D40E356E10D0800E356E0DD0DF
:100226003550010AEEE03550020AEEE03550030A79
:10023600EEE03550040AEEE0F0D73604006E355095
:10024600002600C035F0348000C03BF0F7DE349065
:0A02560037C03BF0F3DE34801200E5
:0E026000ACB202D00000FCD735C0ADFF1200DA
:10026E00600E266E020E276E350E286E000E296E5B
:10027E00CA0E226E000E236E000E246E000E256E28
:10028E00DC0E2E6E000E2F6E000E306E000E316ED6
:10029E00FF0E2A6EFF0E2B6E000E2C6E000E2D6EB4
:1002AE00AC8A900EAB6E948E949C9EAA03D0AECF69
:0602BE0000F0FBD7120066
:1002C400530E156E650E166E720E176E690E186E4D
:1002D400610E196E6C0E1A6E200E1B6E430E1C6E90
:1002E4006F0E1D6E6D0E1E6E6D0E1F6E200E206E37
:1002F400216A936A948E949C31DF010E3B6E9FDEDB
:100304000C0E3B6E9CDE010E356E020E366E150E23
:10031400376E000E386EE5DE330EAF6EAC84A5DFAB
:10032400410E326E82A001D0FDD732C035F096DF87
:10033400340E0C6EF10E0D6E0D2EFED70C2EFCD766
:1003440000000000C9DE00520EE0BDDE00C033F044
:10035400020E356E080E366E00C037F052DF322AB8
:0A03640082B001D0FDD7DED7FFD72D
:020000040030CA
:0D000100220F0EFF0181FF0FC00FE00F4026
:00000001FF
