:1000000067EF00F00000000016EF00F000000000B5
:0C00100000000000000000004AEF00F0BB
:10001C000900F5CFE6FF0006FBE10106F9E112004D
:10002C0000C019F0F282F2A22CD01A6A1B6A000EE0
:10003C00006E1B50005C02E11A50090822E3FF0E0F
:10004C00826E0B0E0B6E260E0C6E5D0E0D6E0D2E53
:10005C00FED70C2EFCD70B2EFAD700000000826ABC
:10006C000B0E0B6E260E0C6E5D0E0D6E0D2EFED74E
:10007C000C2EFCD70B2EFAD7000000001A4A1B2AB4
:08008C00D6D719C000F01100E5
:1000940000C018F0156ED8CF16F0E0CF17F0F0A21C
:1000A4000AD08350090806E38350010F006E00C094
:1000B40083FF01D0836AF0921750E06E1650D86E19
:0A00C400153A153818C000F01000BE
:1000CE001A6A1B6AFF0E936E946A956A826A836A35
:1000DE00D08EF28EF28CF288F292F088F092F09E30
:0600EE00F1980300FFD7AA
:020000040030CA
:0D000100220F0EFF0181FF0FC00FE00F4026
:00000001FF
