:1000000062EF01F00000000000EF00F000000000CF
:0A0010000000000000000000F3D71C
:0A001C00210E0D6E0D2EFED712000E
:100026000F0E0C6E470E0D6E0D2EFED70C2EFCD746
:06003600000000001200B2
:06003C00000000001200AC
:1000420034BE02D0819E01D0818E34BC02D0819C0C
:1000520001D0818C34BA02D0819A01D0818A34B81D
:1000620002D0819801D081882DB002D0818001D048
:1000720081908182E2DF819234B602D0819E01D0EA
:10008200818E34B402D0819C01D0818C34B202D0F2
:10009200819A01D0818A34B002D0819801D08188BE
:1000A2002DB002D0818001D081908182C6DF819201
:0C00B2002DA002D0B7DF01D0B0DF12009B
:0C00BE002D9033C034F0BEDF2D80120006
:1000CA00AECF01F0ABA202D0AB98AB8801C000F072
:0200DA00120012
:0A00DC00000E9EBA010E006E120025
:1000E6000FD0800E2E6E19D0C00E2E6E16D0940E26
:1000F6002E6E13D0D40E2E6E10D0800E2E6E0DD016
:100106002E50010AEEE02E50020AEEE02E50030AAF
:10011600EEE02E50040AEEE0F0D72F04006E2E50CB
:10012600002600C02EF000C034F088DF2D90326A21
:1001360032503024E96E000E3120EA6EEE520BE0AA
:1001460032503024E96E000E3120EA6EEECF33F0E5
:0A015600B3DF322AEDD72D8012002E
:10016000939293909398939A939C939E819281906B
:10017000819E819C819A819856DF55DF54DF818A68
:10018000818881825BDF81924EDF818257DF81929D
:100190004ADF818253DF819246DF819881824EDF80
:1001A000819241DF81824ADF8192819A818E8182B0
:1001B00045DF819238DF819E818881823FDF819295
:1001C000819881823BDF81922EDF818237DF8192AD
:1001D0008188818233DF819226DF819881822EDFC0
:1001E0008192818E818C818A8188818227DF8192B0
:0601F0001ADF2D80120051
:1001F6000900F5CFE6FF0006FBE10106F9E1120072
:100206000FD0800E2E6E19D0C00E2E6E16D0940E04
:100216002E6E13D0D40E2E6E10D0800E2E6E0DD0F4
:100226002E50010AEEE02E50020AEEE02E50030A8E
:10023600EEE02E50040AEEE0F0D72F04006E2E50AA
:10024600002600C02EF02D8000C034F0F7DE2D9081
:0A02560030C034F0F3DE2D801200FA
:0E026000ACB202D00000FCD72EC0ADFF1200E1
:10026E00600E1F6E020E206E2E0E216E000E226E7E
:10027E00CA0E1B6E000E1C6E000E1D6E000E1E6E44
:10028E00DC0E276E000E286E000E296E000E2A6EF2
:10029E00FF0E236EFF0E246E000E256E000E266ED0
:1002AE00AC8A900EAB6E948E949C9EAA03D0AECF69
:0602BE0000F0FBD7120066
:1002C400700E156E690E166E630E176E200E186E84
:1002D400310E196E1A6A936A948E949C3FDF010E54
:1002E400346EADDE0C0E346EAADE010E2E6E020EDE
:1002F4002F6E150E306E000E316EF3DE330EAF6EC0
:10030400AC84B3DF410E2B6E1F0E0B6E710E0C6EA0
:100314001E0E0D6E0D2EFED70C2EFCD70B2EFAD70B
:1003240000002BC02EF09ADF340E0C6EF10E0D6E11
:100334000D2EFED70C2EFCD700000000CDDE00529F
:1003440040E0C1DE00C02CF00050720A04E02C50E2
:10035400520A01E018D0010E346E71DE020E2E6EC8
:10036400080E2F6E2CC030F04CDF2B2A2BC02EF041
:1003740075DF340E0C6EF10E0D6E0D2EFED70C2EA5
:10038400FCD7000000002C50650A04E02C50450AFC
:1003940001E017D0010E346E52DE020E2E6E080EEE
:1003A4002F6E2CC030F02DDF2BC02EF057DF340E13
:1003B4000C6EF10E0D6E0D2EFED70C2EFCD7000028
:0603C4000000BCD7FFD7CA
:020000040030CA
:0D000100220F0EFF0181FF0FC00FE00F4026
:00000001FF
