:04000000C1EF02F05A
:1000080000C016F001C015F09EA066D09E903C0E70
:10001800CF6EAF0ECE6E4A6A47DA00C032F001C02A
:1000280033F0F40E046E010E056E8ED90A0E046EBE
:1000380000C002F001C003F0045007E003320232AE
:10004800039E03BC038EFF0FF8D702C034F003C031
:1000580035F002C04AF003C04BF0430E4C6E000E60
:100068004D6E06D93FDA010E5B6E69D80C0E5B6ED9
:1000780066D8010E4A6E020E4B6E240E4C6E000EB0
:100088004D6EBDD9020E4A6E010E4B6E430E4C6E7C
:10009800000E4D6EB4D91B0E4A6E000E4B6EECD995
:1000A800430E4A6E000E4B6EE7D9180E4A6E000ECC
:1000B8004B6EE2D917C054F086D8172A040E0B6E7F
:1000C8000C0E0C6E330E0D6E0D2EFED70C2EFCD7BB
:1000D8000B2EFAD70000000016C000F015C001F082
:0200E800110005
:1000EA000F0E0C6E470E0D6E0D2EFED70C2EFCD782
:0600FA00000000001200EE
:06010000000000001200E7
:0A010600210E0D6E0D2EFED7120023
:10011000086A096A100E0C6E01340836093604505C
:10012000085E0550D8A0053C095ED8B007D0045041
:1001300008260550D8B0053C0926D890003601366F
:060140000C2EEAD71200AC
:100146005BBE02D0819E01D0818E5BBC02D0819CB9
:1001560001D0818C5BBA02D0819A01D0818A5BB8CA
:1001660002D0819801D0818842B002D0818001D02E
:1001760081908182C2DF81925BB602D0819E01D0DE
:10018600818E5BB402D0819C01D0818C5BB202D09F
:10019600819A01D0818A5BB002D0819801D0818892
:1001A60042B002D0818001D081908182A6DF819207
:0C01B60042A002D097DF01D0A3DF1200AE
:0C01C2000E0E0D6E0D2EFED70000120078
:0E01CE00ACB202D00000FCD754C0ADFF12004E
:1001DC00586A050E585C0AE258505624E16E000E1F
:1001EC005720E26E200EE66E582AF3D7585056244C
:1001FC00E16E000E5720E26EE66A580658505624FF
:10020C00596E000E57205A6E0A0E046E000E056EC3
:10021C0054C000F055C001F075DF08C000F009C0F3
:10022C0001F0300E002659C0E1FF5AC0E2FF00C0B9
:10023C00E6FF0A0E046E000E056E54C000F055C0A9
:10024C0001F060DF00C054F001C055F0000E011841
:10025C0002E1000E001801E102D05806CFD71200BF
:0C026C00429054C05BF069DF4280120039
:10027800506A516A4AC052F04BC053F0800E4B1876
:10028800006E800E005C02E1000E4A5C0BE2010E7B
:10029800506E000E516E4A500008526E4BC053F01B
:1002A800000E535652C054F053C055F04CC056F08F
:1002B8004DC057F08FDF060E4E6E000E4F6E000ECB
:1002C800006E4F50005C02E14E50000819E24E509B
:1002D8004C24E16E4F504D20E26E010E4E5C006ED4
:1002E800000E4F58016E00504C24E96E01504D200D
:1002F800EA6EEECFE6FF010E4E5E000E4F5ADFD7D4
:100308004CC0E1FF4DC0E2FF200EE66E5050511088
:100318001AE04E6A4F6A4E504C24E96E4F504D20F9
:10032800EA6EEE50200A03E14E4A4F2AF4D7010E36
:100338004E5E000E4F5A4E504C24E16E4F504D20E9
:08034800E26E2D0EE66E1200BC
:100350000B6A0A6A096A00500402F4CF09F0F3CF6D
:1003600008F001500502F4CF0BF0F3CF0AF0005073
:100370000502F3500926F4500A22E86A0B220150C4
:100380000402F3500926F4500A22E86A0B2208C03E
:1003900000F009C001F00AC002F00BC003F0120027
:1003A0000900F5CFE6FF0006FBE10106F9E11200C6
:1003B000CE0E3A6E010E3B6E540E3C6E000E3D6E3C
:1003C000FF0E3E6EFF0E3F6E000E406E000E416E41
:1003D000FF0E366EFF0E376E000E386E000E396E51
:1003E000FF0E2E6EFF0E2F6E000E306E000E316E61
:1003F000AC8A900EAB6E948E949C9EAA03D0AECF26
:0604000000F0FBD7120022
:100406000FD0800E4A6E19D0C00E4A6E16D0940ECA
:100416004A6E13D0D40E4A6E10D0800E4A6E0DD09E
:100426004A50010AEEE04A50020AEEE04A50030A38
:10043600EEE04A50040AEEE0F0D74B04006E4A5054
:10044600002600C04AF000C05BF07ADE42904E6A99
:100456004E504C24E96E000E4D20EA6EEE520BE033
:100466004E504C24E96E000E4D20EA6EEECF54F04D
:0A047600FADE4E2AEDD74280120094
:100480004D6A4AC0E9FF4BC0EAFFEECF4CF04C503A
:10049000000A0DE04CC054F09ADE4D2A4D504A241B
:1004A000E96E000E4B20EA6EEECF4CF0F0D7120052
:1004B000C26AC00EC212C18CC18E4AC000F00036A2
:1004C000009000360090003600900050C212C280AA
:1004D00078DEC284C2A401D0FDD7C4CF01F0006A87
:0C04E000C3500012000E0112C290120066
:1004EC00939293909398939A939C939E81928190DC
:1004FC00819E819C819A8198F2DDF1DDF0DD818A0B
:10050C0081888182F7DD8192EADD8182F3DD81923F
:10051C00E6DD8182EFDD8192E2DD81988182EADD88
:10052C008192DDDD8182E6DD8192819A818E8182EC
:10053C00E1DD8192D4DD819E81888182DBDD819237
:10054C0081988182D7DD8192CADD8182D3DD81924F
:10055C0081888182CFDD8192C2DD81988182CADD62
:10056C008192818E818C818A81888182C3DD819286
:06057C00B6DD4280120012
:10058200E5EC02F0936A948E949C800EC16E330E59
:10059200AF6EAC840CDF410E176E310ECD6E9E90A5
:1005A2003C0ECF6EAF0ECE6E9D80C00EF26EFFD7A8
:1005CA0010EE17F0170E006E010E016EB20EF66EE7
:0E05DA00050EF76E000EF86ED0EC01F0120068
:0105B20061E7
:0305B3004F4B00AB
:0905B60054656D7043203D2000E6
:0A05BF0054656D7043203D202000BC
:020000040030CA
:0D000100220F0EFF0181FF0FC00FE00F4026
:00000001FF
