:040000009AEF02F081
:1000080000C016F001C015F09EA057D09E903C0E7F
:10001800CF6EAF0ECE6E3E6A6BDA00C037F001C00D
:1000280038F0F40E046E010E056EB2D90A0E046E95
:1000380000C002F001C003F0045007E003320232AE
:10004800039E03BC038EFF0FF8D702C035F003C030
:1000580036F002C03EF003C03FF02E0E406E000E98
:10006800416EF7D8FAD9010E4F6E5AD80C0E4F6E62
:1000780057D8010E3E6E020E3F6E170E406E000EF0
:10008800416EAED9020E3E6E010E3F6E2E0E406ED0
:10009800000E416EA5D921C03EF0D4D8212A040E05
:1000A8000B6E0C0E0C6E330E0D6E0D2EFED70C2E35
:1000B800FCD70B2EFAD70000000016C000F015C0C0
:0400C80001F0110032
:1000CC000F0E0C6E470E0D6E0D2EFED70C2EFCD7A0
:0600DC000000000012000C
:0600E20000000000120006
:0A00E800210E0D6E0D2EFED7120042
:1000F200086A096A100E0C6E01340836093604507B
:10010200085E0550D8A0053C095ED8B007D004505F
:1001120008260550D8B0053C0926D890003601368D
:060122000C2EEAD71200CA
:100128004FBE02D0819E01D0818E4FBC02D0819CEF
:1001380001D0818C4FBA02D0819A01D0818A4FB800
:1001480002D0819801D081883DB002D0818001D051
:1001580081908182C2DF81924FB602D0819E01D008
:10016800818E4FB402D0819C01D0818C4FB202D0D5
:10017800819A01D0818A4FB002D0819801D08188BC
:100188003DB002D0818001D081908182A6DF81922A
:0C0198003DA002D097DF01D0A3DF1200D1
:1001A4004C6A050E4C5C0AE24C504A24E16E000E87
:1001B4004B20E26E200EE66E4C2AF3D74C504A24B4
:1001C400E16E000E4B20E26EE66A4C064C504A2467
:1001D4004D6E000E4B204E6E0A0E046E000E056E20
:1001E40048C000F049C001F082DF08C000F009C037
:1001F40001F0300E00264DC0E1FF4EC0E2FF00C00A
:10020400E6FF0A0E046E000E056E48C000F049C0F9
:1002140001F06DDF00C048F001C049F0000E011884
:1002240002E1000E001801E102D04C06CFD7120003
:0C0234000E0E0D6E0D2EFED70000120005
:0C0240003D9048C04FF070DF3D80120080
:0E024C00ACB202D00000FCD73EC0ADFF1200E5
:10025A00446A456A3EC046F03FC047F0800E3F18E8
:10026A00006E800E005C02E1000E3E5C0BE2010EA5
:10027A00446E000E456E3E500008466E3FC047F081
:10028A00000E475646C048F047C049F040C04AF001
:10029A0041C04BF082DF060E426E000E436E000E26
:1002AA00006E4350005C02E14250000819E24250DD
:1002BA004024E16E43504120E26E010E425C006E22
:1002CA00000E4358016E00504024E96E015041204F
:1002DA00EA6EEECFE6FF010E425E000E435ADFD70A
:1002EA0040C0E1FF41C0E2FF200EE66E44504510D7
:1002FA001AE0426A436A42504024E96E4350412060
:10030A00EA6EEE50200A03E1424A432AF4D7010E6C
:10031A00425E000E435A42504024E16E435041204F
:08032A00E26E2D0EE66E1200DA
:100332004C0E226E020E236E3E0E246E000E256EB1
:10034200FF0E266EFF0E276E000E286E000E296E1F
:10035200FF0E2A6EFF0E2B6E000E2C6E000E2D6EFF
:10036200FF0E396EFF0E3A6E000E3B6E000E3C6EB3
:10037200AC8A900EAB6E948E949C9EAA03D0AECFA4
:0603820000F0FBD71200A1
:100388000900F5CFE6FF0006FBE10106F9E11200DE
:100398000B6A0A6A096A00500402F4CF09F0F3CF25
:1003A80008F001500502F4CF0BF0F3CF0AF000502B
:1003B8000502F3500926F4500A22E86A0B2201507C
:1003C8000402F3500926F4500A22E86A0B2208C0F6
:1003D80000F009C001F00AC002F00BC003F01200DF
:1003E8000FD0800E3E6E19D0C00E3E6E16D0940E01
:1003F8003E6E13D0D40E3E6E10D0800E3E6E0DD0E1
:100408003E50010AEEE03E50020AEEE03E50030A7A
:10041800EEE03E50040AEEE0F0D73F04006E3E5096
:10042800002600C03EF000C04FF07ADE3D90426AE0
:1004380042504024E96E000E4120EA6EEE520BE075
:1004480042504024E96E000E4120EA6EEECF48F09B
:0A045800F3DE422AEDD73D801200CA
:10046200939293909398939A939C939E8192819066
:10047200819E819C819A819828DE27DE26DE818AF0
:10048200818881822DDE819220DE818229DE819225
:100492001CDE818225DE819218DE8198818220DE37
:1004A200819213DE81821CDE8192819A818E818209
:1004B20017DE81920ADE819E8188818211DE81921D
:1004C200819881820DDE819200DE818209DE819235
:1004D2008188818205DE8192F8DD8198818200DE49
:1004E2008192818E818C818A81888182F9DD8192DB
:0604F200ECDD3D8012006C
:1004F800C26AC00EC212C18CC18E3EC000F0003666
:10050800009000360090003600900050C212C28061
:100518008DDEC284C2A401D0FDD7C4CF01F0006A29
:0C052800C3500012000E0112C29012001D
:10053400540E176E650E186E6D0E196E700E1A6ECF
:10054400430E1B6E200E1C6E3D0E1D6E200E1E6E85
:10055400200E1F6E206A610E216E936A948E949C05
:10056400800EC16E330EAF6EAC84E1DE410E216E9F
:10057400310ECD6E9E903C0ECF6EAF0ECE6E9D8032
:06058400C00EF26EFFD76D
:020000040030CA
:0D000100220F0EFF0181FF0FC00FE00F4026
:00000001FF
