:1000000062EF01F00000000000EF00F000000000CF
:0A0010000000000000000000F3D71C
:0A001C00210E0D6E0D2EFED712000E
:100026000F0E0C6E470E0D6E0D2EFED70C2EFCD746
:06003600000000001200B2
:06003C00000000001200AC
:100042003ABE02D0819E01D0818E3ABC02D0819C00
:1000520001D0818C3ABA02D0819A01D0818A3AB811
:1000620002D0819801D081882EB002D0818001D047
:1000720081908182E2DF81923AB602D0819E01D0E4
:10008200818E3AB402D0819C01D0818C3AB202D0E6
:10009200819A01D0818A3AB002D0819801D08188B8
:1000A2002EB002D0818001D081908182C6DF819200
:0C00B2002EA002D0B7DF01D0B0DF12009A
:0C00BE002E9039C03AF0BEDF2E801200F8
:1000CA000FD0800E346E19D0C00E346E16D0940E36
:1000DA00346E13D0D40E346E10D0800E346E0DD020
:1000EA003450010AEEE03450020AEEE03450030ABA
:1000FA00EEE03450040AEEE0F0D73504006E3450D6
:10010A00002600C034F02E8000C03AF095DF2E9011
:0A011A0036C03AF091DF2E8012008B
:10012400AECF01F0ABA202D0AB98AB8801C000F017
:020134001200B7
:100136000FD0800E346E19D0C00E346E16D0940EC9
:10014600346E13D0D40E346E10D0800E346E0DD0B3
:100156003450010AEEE03450020AEEE03450030A4D
:10016600EEE03450040AEEE0F0D73504006E345069
:10017600002600C034F000C03AF060DF2E90386AE6
:1001860038503624E96E000E3720EA6EEE520BE048
:1001960038503624E96E000E3720EA6EEECF39F07D
:0A01A6008BDF382AEDD72E801200FF
:1001B000939293909398939A939C939E819281901B
:1001C000819E819C819A81982EDF2DDF2CDF818A90
:1001D0008188818233DF819226DF81822FDF8192C5
:1001E00022DF81822BDF81921EDF8198818226DFD0
:1001F000819219DF818222DF8192819A818E8182B0
:100200001DDF819210DF819E8188818217DF8192BC
:100210008198818213DF819206DF81820FDF8192D4
:10022000818881820BDF8192FEDE8198818206DFE8
:100230008192818E818C818A81888182FFDE819288
:06024000F2DE2E80120028
:100246000900F5CFE6FF0006FBE10106F9E1120021
:0E025600ACB202D00000FCD734C0ADFF1200E5
:0A026400000E9EBA010E006E12009B
:10026E00560E2F6E020E306E340E316E000E326E42
:10027E00240E226E010E236E000E246E000E256ECD
:10028E00640E266E020E276E000E286E000E296E6C
:10029E00FF0E2A6EFF0E2B6E000E2C6E000E2D6EB4
:1002AE00AC8A900EAB6E948E949C9EAA03D0AECF69
:0602BE0000F0FBD7120066
:1002C400530E156E650E166E720E176E690E186E4D
:1002D400610E196E6C0E1A6E200E1B6E430E1C6E90
:1002E4006F0E1D6E6D0E1E6E6D0E1F6E200E206E37
:1002F400216A936A5BDF010E3A6EA1DE0C0E3A6E40
:100304009EDE010E346E020E356E150E366E000E34
:10031400376E0FDF330EAF6EAC84A7DFA1DF005260
:100324000EE0FEDE00C033F0020E346E080E356EB1
:1003340000C036F0C8DE332A33C034F08ADFEED78B
:02034400FFD7E1
:020000040030CA
:0D000100220F0EFF0181FF0FC00FE00F4026
:00000001FF
