:0400000066EF01F0B6
:1000080000C018F001C017F00CC016F00DC015F0B4
:10001800F2A43ED0F2940B0ED76EDB0ED66EF9D852
:10002800005229E046D900C02AF0F8D8010E2E6EF9
:100038004BD80C0E2E6E48D8020E2B6E080E2C6E66
:100048002AC02DF07FD8340E0C6EF10E0D6E0D2ED9
:10005800FED70C2EFCD700000000520E2B6E9FD846
:10006800340E0C6EF10E0D6E0D2EFED70C2EFCD735
:10007800000000000DD0450E2B6E91D8340E0C6E8A
:10008800F10E0D6E0D2EFED70C2EFCD700000000D1
:1000980018C000F017C001F016C00CF015C00DF024
:0200A800110045
:1000AA000F0E0C6E470E0D6E0D2EFED70C2EFCD7C2
:0600BA000000000012002E
:0600C00000000000120028
:0A00C600210E0D6E0D2EFED7120064
:1000D0002EBE02D0819E01D0818E2EBC02D0819C8A
:1000E00001D0818C2EBA02D0819A01D0818A2EB89B
:1000F00002D0819801D0818829B002D0818001D0BE
:1001000081908182DDDF81922EB602D0819E01D066
:10011000818E2EB402D0819C01D0818C2EB202D06F
:10012000819A01D0818A2EB002D0819801D0818835
:1001300029B002D0818001D081908182C1DF81927B
:0C01400029A002D0B2DF01D0BEDF120007
:10014C000FD0800E2B6E19D0C00E2B6E16D0940EC5
:10015C002B6E13D0D40E2B6E10D0800E2B6E0DD0B8
:10016C002B50010AEEE02B50020AEEE02B50030A52
:10017C00EEE02B50040AEEE0F0D72C04006E2B506E
:10018C00002600C02BF0298000C02EF09BDF2990A8
:0A019C002DC02EF097DF298012001D
:0E01A600ACB202D00000FCD72BC0ADFF12009F
:1001B4000900F5CFE6FF0006FBE10106F9E11200B4
:1001C400A60E1D6E010E1E6E2B0E1F6E000E206EEF
:1001D400BA0E196E020E1A6E000E1B6E000E1C6E05
:1001E4001A0E216E020E226E000E236E000E246E75
:1001F400FF0E256EFF0E266E000E276E000E286E73
:10020400AC8A900EAB6E948E949C9EAA03D0AECF13
:0602140000F0FBD7120010
:0A021A00000E9EBA010E006E1200E5
:10022400939293909398939A939C939E81928190A6
:10023400819E819C819A819836DF35DF34DF818A03
:10024400818881823BDF81922EDF818237DF819238
:100254002ADF818233DF819226DF819881822EDF3B
:10026400819221DF81822ADF8192819A818E81822B
:1002740025DF819218DF819E818881821FDF819230
:10028400819881821BDF81920EDF818217DF819248
:100294008188818213DF819206DF819881820EDF5B
:1002A4008192818E818C818A8188818207DF81920B
:0602B400FADE29801200B1
:1002BA00AECF01F0ABA202D0AB98AB8801C000F080
:0202CA00120020
:1002CC00936A330EAF6EAC8477DF340E0C6EF10E86
:1002DC000D6E0D2EFED70C2EFCD700000000840EE8
:1002EC00D56E0B0ED76EDB0ED66EF28EF28AFFD762
:020000040030CA
:0D000100220F0EFF0181FF0FC00FE00F4026
:00000001FF
