:100000006CEF00F00000000000EF00F000000000C6
:0A0010000000000000000000F3D71C
:0E001C00ACB202D00000FCD7A7C0ADFF1200AE
:10002A000001A66BA3C0E9FFA4C0EAFFEECFA5F0CA
:10003A00A551000A0EE0A5C0A7F0EBDF0001A62B30
:10004A00A651A325E96E000EA421EA6EEECFA5F013
:04005A00EFD71200CA
:10005E000D0E0001A76FDBDF0A0E0001A76FD7DFC1
:02006E0012007E
:100070000900F5CFE6FF0006FBE10106F9E11200F9
:100080001C0E0001936F000E946FA70E956F000E6B
:10009000966FFF0E976FFF0E986F000E996F000E10
:1000A0009A6FFF0E9F6FFF0EA06F000EA16F000EE4
:1000B000A26FFF0E9B6FFF0E9C6F000E9D6F000ED8
:1000C0009E6FAC8A900EAB6E948E949C9EAA03D0C9
:0800D000AECF00F0FBD71200D7
:1000D8004BEC01F0FF0E936E330EAF6EAC84CCDFA9
:1000E80081A008D00001460EA36F000EA46F99DF0F
:1000F800B2DF07D03E0E0001A36F000EA46F91DFA0
:10010800AADF81A208D04C0E0001A36F000EA46FD5
:1001180088DFA1DF07D05A0E0001A36F000EA46F7D
:1001280080DF99DF81A408D0530E0001A36F000E71
:10013800A46F77DF90DF07D01C0E0001A36F000EBD
:10014800A46F6FDF88DF81A608D0150E0001A36FAA
:10015800000EA46F66DF7FDF07D0250E0001A36FB6
:10016800000EA46F5EDF77DF81A808D0370E00018C
:10017800A36F000EA46F55DF6EDF07D02E0E0001AF
:10018800A36F000EA46F4DDF66DF81AA08D0750E3D
:100198000001A36F000EA46F44DF5DDF07D06C0E73
:1001A8000001A36F000EA46F3CDF55DF81AC08D0BF
:1001B8007C0E0001A36F000EA46F33DF4CDF07D065
:1001C8008A0E0001A36F000EA46F2BDF44DF81AEFF
:1001D80008D0830E0001A36F000EA46F22DF3BDF5F
:1001E80007D0630E0001A36F000EA46F1ADF33DF80
:1001F800060E0B6E130E0C6EAD0E0D6E0D2EFED789
:100208000C2EFCD70B2EFAD70000000069D7FFD7B9
:1002960010EE15F07E0E006E010E016E180EF66E53
:0E02A600020EF76E000EF86E38EC00F012003B
:07021800204F70656E20000D
:09021F0020436C6F73656420003C
:0902280020436C6F736564200033
:0902310020436C6F73656420002A
:07023A00204F70656E2000EB
:0802410020436C6F736564003B
:06024900204F70656E00FD
:07024F00204F70656E2000D6
:07025600204F70656E2000CF
:09025D0020436C6F7365642000FE
:0902660020436C6F7365642000F5
:09026F0020436C6F7365642000EC
:07027800204F70656E2000AD
:07027F00204F70656E2000A6
:07028600204F70656E20009F
:09028D0020436C6F7365642000CE
:020000040030CA
:0D000100220F0EFF0181FF0FC00FE00F4026
:00000001FF
