:0400000096EF00F087
:1000080000C015F0F2A219D0160E2E6E000E2F6E3B
:1000180037D8010E836E060E0B6E130E0C6EAD0EE6
:100028000D6E0D2EFED70C2EFCD70B2EFAD7000026
:100038000000836A3DD8F29219D0F0A017D0190EAB
:100048002E6E000E2F6E1CD88382060E0B6E130EBA
:100058000C6EAD0E0D6E0D2EFED70C2EFCD70B2E92
:10006800FAD700000000839223D8F09015C000F062
:02007800110075
:0E007A00ACB202D00000FCD732C0ADFF1200C5
:10008800316A2EC0E9FF2FC0EAFFEECF30F03050C2
:10009800000A0DE030C032F0ECDF312A31502E2456
:1000A800E96E000E2F20EA6EEECF30F0F0D7120086
:0E00B8000D0E326EDEDF0A0E326EDBDF12003E
:1000C6000900F5CFE6FF0006FBE10106F9E11200A3
:1000D6007A0E266E000E276E320E286E000E296EE0
:1000E600FF0E2A6EFF0E2B6E000E2C6E000E2D6E6E
:1000F600FF0E226EFF0E236E000E246E000E256E7E
:10010600FF0E1E6EFF0E1F6E000E206E000E216E7D
:10011600AC8A900EAB6E948E949C9EAA03D0AECF02
:0601260000F0FBD71200FF
:10012C00550E166E700E176E186A440E196E6F0E01
:10013C001A6E770E1B6E6E0E1C6E1D6AFF0E936E82
:10014C00956AF28EF288F292F086F090330EAF6ED2
:0A015C00AC84BBDF0300FED7FFD721
:020000040030CA
:0D000100220F0EFF0181FF0FC00FE00F4026
:00000001FF
