:1000000048EF00F00000000000EF00F000000000EA
:0A0010000000000000000000F3D71C
:0E001C00ACB202D00000FCD726C0ADFF12002F
:10002A000900F5CFE6FF0006FBE10106F9E112003F
:10003A001C0E196E000E1A6E260E1B6E000E1C6E1A
:10004A00FF0E156EFF0E166E000E176E000E186E5E
:10005A00FF0E216EFF0E226E000E236E000E246E1E
:10006A00FF0E1D6EFF0E1E6E000E1F6E000E206E1E
:10007A00AC8A900EAB6E948E949C9EAA03D0AECF9F
:06008A0000F0FBD712009C
:10009000948E949C330EAF6EAC84CFDF340E0C6E16
:1000A000F10E0D6E0D2EFED70C2EFCD700000000B9
:1000B000610E256E610E266EB1DF340E0C6EF10EF0
:1000C0000D6E0D2EFED70C2EFCD700000000FFD7C2
:020000040030CA
:0D000100220F0EFF0181FF0FC00FE00F4026
:00000001FF
