:100000002EEF01F00000000000EF00F00000000003
:0A0010000000000000000000F3D71C
:10001C000F0E0C6E470E0D6E0D2EFED70C2EFCD750
:06002C00000000001200BC
:0A003200210E0D6E0D2EFED71200F8
:06003C00000000001200AC
:1000420062BE02D0819E01D0818E62BC02D0819CB0
:1000520001D0818C62BA02D0819A01D0818A62B8C1
:1000620002D0819801D0818856B002D0818001D01F
:1000720081908182E2DF819262B602D0819E01D0BC
:10008200818E62B402D0819C01D0818C62B202D096
:10009200819A01D0818A62B002D0819801D0818890
:1000A20056B002D0818001D081908182C6DF8192D8
:0C00B20056A002D0B2DF01D0BBDF12006C
:0C00BE00569061C062F0BEDF5680120058
:1000CA00FF0E4A6EFF0E4B6EFF0E4C6EFF0E4D6E0C
:1000DA004A0E4E6E020E4F6E000E506E000E516E9C
:1000EA00400E526E020E536E000E546E000E556E86
:1000FA00FF0E586EFF0E596E000E5A6E000E5B6EA2
:10010A00AC8A900EAB6E948E949C9EAA03D0AECF0E
:06011A0000F0FBD712000B
:100120000900F5CFE6FF0006FBE10106F9E1120048
:10013000939293909398939A939C939E819281909B
:10014000819E819C819A819869DF68DF67DF818A5F
:100150008188818273DF819261DF81826FDF81928A
:100160005DDF81826BDF819259DF8198818266DF5A
:10017000819254DF818262DF8192819A818E8182B5
:100180005DDF81924BDF819E8188818257DF819282
:100190008198818253DF819241DF81824FDF81929A
:1001A000818881824BDF819239DF8198818246DFAD
:1001B0008192818E818C818A818881823FDF8192C8
:0601C0002DDF5680120045
:1001C6000FD0800E5C6E19D0C00E5C6E16D0940EE9
:1001D6005C6E13D0D40E5C6E10D0800E5C6E0DD0AB
:1001E6005C50010AEEE05C50020AEEE05C50030A45
:1001F600EEE05C50040AEEE0F0D75D04006E5C5061
:10020600002600C05CF000C062F018DF5690606AFD
:1002160060505E24E96E000E5F20EA6EEE520BE03F
:1002260060505E24E96E000E5F20EA6EEECF61F04C
:0A02360043DF602AEDD75680120066
:0A024000000E9EBA010E006E1200BF
:10024A00AECF01F0ABA202D0AB98AB8801C000F0F0
:02025A00120090
:10025C00BEEC01F0070EC16EFF0E926E956A95CF43
:10026C0093FF948E949C5EDF0C0E626EE4DE010EA6
:10027C005C6E010E5D6E3B0E5E6E000E5F6E9DDF62
:10028C00330EAF6EAC841BDF820E0C6EDD0E0D6E6A
:10029C000D2EFED70C2EFCD700000000CBDF005239
:1002AC004AE0CDDF00C057F00050750A04E057500B
:1002BC00550A01E01BD0394A3A2A800E006E800E96
:1002CC003A18005C02E13950050802E2396A3A6AD0
:1002DC0039C083FF80808092020E5C6E010E5D6ED1
:1002EC00270E5E6E000E5F6E68DF25D05750640AD5
:1002FC0004E05750440A01E01ED0010E395E000E96
:10030C003A5A800E3A18006E800E005C02E1000E24
:10031C00395C04E2050E396E000E3A6E39C083FF6B
:10032C0080908082020E5C6E010E5D6E150E5E6E0C
:0A033C00000E5F6E42DFB2D7FFD75C
:10037C0010EE15F0350E006E010E016E460EF66E87
:0E038C00030EF76E000EF86E90EC00F01200FB
:100346002020436F756E74657220446F776E20208F
:02035600200085
:100358002020436F756E7465722020555020202030
:02036800200073
:02036A00000091
:0F036C0053657269616C205043203753656700F9
:020000040030CA
:0D000100220F0EFF0181FF0FC00FE00F4026
:00000001FF
