:10000000F3EF05F00000000000EF00F0000000003A
:0A0010000000000000000000F3D71C
:10001C000F0E0C6E470E0D6E0D2EFED70C2EFCD750
:06002C00000000001200BC
:06003200000000001200B6
:0A003800210E0D6E0D2EFED71200F2
:100042000B840BAE2CEF00F0010E036E026A016A04
:0A005200006A0A360232FF0E1200A7
:10005C000B820BAE38EF00F0036802680168006891
:08006C000A360232FF0E1200F9
:080074000AAE029E000E12000C
:0E007C00026A016A006A086A036A000E120036
:10008A0050BE02D0819E01D0818E50BC02D0819C8C
:10009A0001D0818C50BA02D0819A01D0818A50B89D
:1000AA0002D0819801D081881FB002D0818001D00E
:1000BA0081908182B9DF819250B602D0819E01D0AF
:1000CA00818E50B402D0819C01D0818C50B202D072
:1000DA00819A01D0818A50B002D0819801D081885A
:1000EA001FB002D0818001D0819081829DDF8192F0
:0C00FA001FA002D08EDF01D09ADF1200A0
:0C0106001F904CC050F0BEDF1F801200A4
:100112000A6A0350D8A40A800750D8A40A820A5057
:10012200D8B4ECEF00F0030AD8B4A5EF00F00AB09F
:10013200A0EF00F006AEEAEF00F0E8EF00F002AE4A
:10014200E8EF00F0EAEF00F00250800B0A6E029E28
:100152000650800B069E0A18D8B4B6EF00F00A507B
:10016200D8B4E8EF00F0EAEF00F00750035CD8B42F
:10017200C0EF00F0D8A0DCEF00F0E2EF00F0065094
:10018200025CD8B4CAEF00F0D8A0DCEF00F0E2EFD6
:1001920000F00550015CD8B4D4EF00F0D8A0DCEF39
:1001A20000F0E2EF00F00450005CD8B4ECEF00F095
:1001B200D8B0E2EF00F00A52D8B4EAEF00F0E8EF6C
:1001C20000F00A52D8B4E8EF00F0EAEF00F0D8806D
:0E01D2001200D8901200D880D88412001200BB
:1001E0004CC004F04DC005F004C002F005C003F09F
:1001F000044A052A4EC000F04FC001F04E4A4F2A73
:1002000000C0E9FF01C0EAFF02C0E1FF03C0E2FF56
:10021000EECFE6FF02C0E9FF03C0EAFFEE5201E0C5
:0C022000E3D74CC000F04DC001F012000C
:10022C00086A096A000E076203649BEF01F0025032
:10023C0006180A6E075003267E0ED8A02CEF01F08C
:10024C00035ED8B09FEF01F030EF01F0035ED8A051
:10025C00A3EF01F0028E068E02C00EF001C00BF06F
:10026C0000C00DF000500402F4CF0CF00150050258
:10027C00F4CF00F0F3CF08F00402F3500C26F45046
:10028C000822000E00220D500502F3500C26F450EB
:10029C000822000E002202500402F3500826F450EB
:1002AC00002202500502016A000E0122F3500026C2
:1002BC00F45001220D500602F3500826F45000228F
:1002CC00026A000E012202220B500602F350002695
:1002DC00F4500122000E02220E500602F3500126A9
:1002EC00F450022202BE83EF01F0083600360136CC
:1002FC0002360306D8B4A3EF01F096EF01F0D880D4
:10030C00800E08640030000E002201220222D8A0C8
:10031C0096EF01F0023201320032034A9FEF01F0F6
:10032C000AAE029E000EA5EF01F0010EA1DEA5EFB4
:10033C0001F0020E8DDEA5EF01F0040E7CDE120042
:10034C00086A080E0C6E003408360450085ED8B0EB
:0E035C0002D00826D89000360C2EF5D71200DD
:10036A00086A096A100E0C6E013408360936045000
:10037A00085E0550D8A0053C095ED8B007D00450E5
:10038A0008260550D8B0053C0926D8900036013613
:06039A000C2EEAD7120050
:1003A0000C6A0E6A0250D8A4E9EF01F001C002F015
:1003B00000C001F0006A0E860250D8A4E9EF01F0F7
:1003C00001C002F0016A0E960E880250D8B4FBEF0D
:1003D00001F00E50035ED8A4D8A000EF02F0D89030
:1003E00002BE05EF02F0003601360236032EF0EFB2
:1003F00001F000EF02F0010E0C6E40DE08EF02F09B
:10040000020E0C6E1EDE08EF02F0040E0C6E32DEE1
:020410001200D8
:0C0412000E0E0D6E0D2EFED70000120025
:08041E000B6A0B86FF0E1200B1
:100426000900F5CFE6FF0006FBE10106F9E112003F
:10043600FF0E206EFF0E216EFF0E226EFF0E236E44
:0E044600C26AC00EC212C18CC18EC2801200EA
:10045400939293909398939A939C939E8192819074
:10046400819E819C819A8198D7DDD6DDD5DD818AF4
:1004740081888182DCDD8192CFDD8182D8DD819229
:10048400CBDD8182D4DD8192C7DD81988182CFDD8D
:100494008192C2DD8182CBDD8192819A818E8182BB
:1004A400C6DD8192B9DD819E81888182C0DD819221
:1004B40081988182BCDD8192AFDD8182B8DD819239
:1004C40081888182B4DD8192A7DD81988182AFDD4C
:1004D4008192818E818C818A81888182A8DD81923A
:0604E4009BDD1F801200E9
:1004EA00C26AC00EC212C18CC18E3EC000F0003674
:1004FA00009000360090003600900050C212C28070
:10050A0083DFC284C2A401D0FDD7C4CF01F0006A40
:0C051A00C3500012000E0112C29012002B
:100526000050086E0150006E016A026A036A0B6A87
:100536000C6A960E036E0A6A00C001F008C000F04D
:08054600086A026A2ADF1200B4
:10054E00426A050E425C0AE242504024E16E000E01
:10055E004120E26E200EE66E422AF3D7425040242E
:10056E00E16E000E4120E26EE66A420642504024E1
:10057E00436E000E4120446E0A0E046E000E056E90
:10058E003EC000F03FC001F0E9DE08C000F009C037
:10059E0001F0300E002643C0E1FF44C0E2FF00C070
:1005AE00E6FF0A0E046E000E056E3EC000F03FC060
:1005BE0001F0D4DE00C03EF001C03FF0000E011885
:1005CE0002E1000E001801E102D04206CFD7120060
:1005DE004A6A4B6A3EC046F03FC047F040C048F002
:1005EE0041C049F04950FF0A08E14850FF0A05E1B1
:1005FE004750FF0A02E14650FF0A0CE142C04CF0A0
:10060E0043C04DF0150E4E6E000E4F6EE2DD030E22
:10061E00006EE5D1010E446E48AE0ED0800E481825
:10062E00006E00C048F0442A42C0E1FF43C0E2FF22
:10063E002D0EE66E424A432A000E006E491808E15E
:10064E000050481805E10050471802E14650000AD4
:10065E000BE142C04CF043C04DF0190E4E6E000E31
:10066E004F6EB7DD006ABBD14950FF0A08E1485012
:10067E00000A05E14750000A02E14650000A0CE16B
:10068E0042C04CF043C04DF01B0E4E6E000E4F6E2E
:10069E00A0DD44C000F0A3D1000E046E000E056E66
:1006AE00000E066E7F0E076E46C000F047C001F0CA
:1006BE0048C002F049C003F025DD010ED8B0000E8F
:1006CE00006E00521BE046C000F047C001F048C06B
:1006DE0002F049C003F0000E046E000E056E200EEF
:1006EE00066E820E076E9BDD00C046F001C047F01D
:1006FE0002C048F003C049F04B06CED7000E046E80
:10070E00000E056E200E066E820E076E46C000F0BD
:10071E0047C001F048C002F049C003F0F3DC000E00
:10072E00D8B0010E006E00521BE046C000F047C06C
:10073E0001F048C002F049C003F0CD0E046ECC0E9D
:10074E00056E4C0E066E7B0E076E69DD00C046F020
:10075E0001C047F002C048F003C049F04B2ACED783
:10076E00FF0E4614086EFF0E4714096E7F0E4814D6
:10077E000A6E000E49140B6E08C004F009C005F095
:10078E000AC006F00BC007F0043604900536063694
:10079E000736000E4614006E000E4714016E000E52
:1007AE004814026EFF0E4914036E00C046F001C0DD
:1007BE0047F002C048F003C049F004504610006EE6
:1007CE0005504710016E06504810026E0750491032
:1007DE00036E00C046F001C047F002C048F003C0EF
:1007EE0049F07F0E495C006E00C045F0010E496E67
:1007FE0000C004F046C000F047C001F048C002F04F
:10080E0049C003F0045007E000360090013602366E
:10081E000336FF0FF8D700C046F001C047F002C004
:10082E0048F003C049F042C0E1FF43C0E2FF495027
:10083E00300FE66E424A432A800E4B18006E800E31
:10084E00010A005C08E3800E060A006E800E4B184B
:10085E00005C01E30AD042C0E1FF43C0E2FF2E0E6E
:10086E00E66E424A432A010E4A6E060E456E45500A
:10087E00000A54E0496A46C000F047C001F048C083
:10088E0002F049C003F000360090013602360336FE
:10089E000036009001360236033646500026475089
:1008AE000122485002224950032200C046F001C0E6
:1008BE0047F002C048F003C049F046C000F047C000
:1008CE0001F048C002F049C003F000360090013636
:1008DE000236033600C046F001C047F002C048F0B1
:1008EE0003C049F042C0E1FF43C0E2FF4950300F60
:1008FE00E66E424A432A4A50000A0EE14B064B501E
:10090E00000A0AE142C0E1FF43C0E2FF2E0EE66E8E
:10091E00424A432A010E4A6E4506A9D7FF0E4224CB
:10092E00E96EFF0E4320EA6EEE50300A05E1010E2D
:10093E00425E000E435AF2D7FF0E4224E96EFF0EBE
:10094E004320EA6EEE502E0A04E1010E425E000EC6
:10095E00435A4B50000A3DE042C0E1FF43C0E2FF64
:10096E00650EE66E424A432A800E4B18006E800ECC
:10097E00000A005C0BE242C0E1FF43C0E2FF2D0E15
:10098E00E66E424A432A4B5000084B6E4BC045F070
:10099E004B5009080EE20A0E046E45C000F0CFDC83
:1009AE0042C0E1FF43C0E2FF0050300FE66E424A04
:1009BE00432A0A0E046E45C000F0C1DC08C000F0E8
:1009CE0042C0E1FF43C0E2FF0050300FE66E424AE4
:1009DE00432A42C0E1FF43C0E2FFE66A006A12000A
:1009EE000FD0800E3E6E19D0C00E3E6E16D0940EF5
:1009FE003E6E13D0D40E3E6E10D0800E3E6E0DD0D5
:100A0E003E50010AEEE03E50020AEEE03E50030A6E
:100A1E00EEE03E50040AEEE0F0D73F04006E3E508A
:100A2E00002600C03EF000C050F045EC00F01F90D4
:100A3E00426A42504024E96E000E4120EA6EEE52A8
:100A4E000CE042504024E96E000E4120EA6EEECFDB
:0E0A5E004CF083EC00F0422AECD71F8012000F
:100A6C000450000A12E10550000A0FE10650000A7A
:100A7C000CE10750000A09E1FF0E006EFF0E016E3B
:100A8C007F0E026EFF0E036EA7D0086A096A07502C
:100A9C00D8B4E1EF05F00350D8B4E5EF05F00250FF
:100AAC0006180A6E028E068E0E6A02C008F001C08D
:100ABC000CF000C00DF004500D5E0550D8A0053CA4
:100ACC000C5E0650D8A0063C085E086A0C6A0D6ADB
:100ADC00D8A078EF05F0D8900232013200320832FB
:100AEC00010E0E6E0750035ED8A085EF05F07E0E4A
:100AFC000E240326D8B0EAEF05F08BEF05F07E0E3E
:100B0C000E240326D8A0EFEF05F0180E0B6E0D3651
:100B1C000C3608360036013602360E360450005EAE
:100B2C000550D8A0053C015E0650D8A0063C025EDC
:100B3C0006340E120EA0A6EF05F00D80B1EF05F0F5
:100B4C00045000260550D8B0053C01260650D8B0FC
:100B5C00062802260D900B2E8DEF05F0D7EF05F031
:100B6C00D8900036013602360E360450005E055021
:100B7C00D8A0053C015E0650D8A0063C025E0634A7
:100B8C000E10010B0D26D8B00C2AD8B4082AD8A404
:100B9C00D7EF05F008320C320D32032AD8B4EAEF45
:100BAC0005F00AAE089E0850026E0C50016E0D50F6
:100BBC00006EF2EF05F0010E2CDCF2EF05F0020EE8
:100BCC003EEC00F0F2EF05F0040E2EEC00F0F2EF2C
:0A0BDC0005F0080E21EC00F01200F5
:100BE6007BEC06F025DC050EC16E928030DC010E32
:100BF600506E45EC00F00C0E506E45EC00F03E6A6F
:100C060071DC00C028F001C029F08ADC000E046EF9
:100C1600000E056E400E066E7F0E076E16EC01F096
:100C260000C024F001C025F002C026F003C027F062
:100C3600000E046E000E056E000E066E890E076E1F
:100C460012DF00C024F001C025F002C026F003C068
:100C560027F0000E046E000E056E480E066E850E19
:100C6600076E16EC01F000C024F001C025F002C0AA
:100C760026F003C027F028C03EF029C03FF0340E0E
:100C8600406E000E416E60DC24C03EF025C03FF091
:100C960026C040F027C041F02A0E426E000E436E79
:100CA6009BDC010E3E6E010E3F6E340E406E000E52
:100CB600416E9ADE020E3E6E010E3F6E2A0E406EA9
:100CC600000E416E91DE0B0E0B6E260E0C6E5D0E47
:100CD6000D6E0D2EFED70C2EFCD70B2EFAD700006C
:060CE60000008DD7FFD7CE
:100CF60010EE15F00A0E006E010E016EEC0EF66E89
:0E0D06000C0EF76E000EF86E13EC02F01200E9
:040CEC004E614E0007
:020CF0003000D2
:040CF200494E460021
:020000040030CA
:0D000100220F0EFF0181FF0FC00FE00F4026
:00000001FF
