:1000000082EF01F00000000000EF00F000000000AF
:0A0010000000000000000000F3D71C
:10001C00086A096A100E0C6E013408360936045051
:10002C00085E0550D8A0053C095ED8B007D0045036
:10003C0008260550D8B0053C0926D8900036013664
:06004C000C2EEAD71200A1
:10005200566A050E565C0AE256505424E16E000EB2
:100062005520E26E200EE66E562AF3D756505424DF
:10007200E16E000E5520E26EE66A56065650542492
:10008200576E000E5520586E0A0E046E000E056E55
:1000920052C000F053C001F0C0DF08C000F009C038
:1000A20001F0300E002657C0E1FF58C0E2FF00C049
:1000B200E6FF0A0E046E000E056E52C000F053C039
:1000C20001F0ABDF00C052F001C053F0000E011886
:1000D20002E1000E001801E102D05606CFD712004D
:0C00E2000E0E0D6E0D2EFED70000120059
:0E00EE00ACB202D00000FCD752C0ADFF120031
:1000FC000B6A0A6A096A00500402F4CF09F0F3CFC4
:10010C0008F001500502F4CF0BF0F3CF0AF00050C9
:10011C000502F3500926F4500A22E86A0B2201501A
:10012C000402F3500926F4500A22E86A0B2208C094
:10013C0000F009C001F00AC002F00BC003F012007D
:0E014C000D0E526ECEDF0A0E526ECBDF120089
:10015A000900F5CFE6FF0006FBE10106F9E112000E
:10016A00EE0E446E000E456E520E466E000E476E3F
:10017A00FF0E406EFF0E416E000E426E000E436E81
:10018A00FF0E386EFF0E396E000E3A6E000E3B6E91
:10019A00FF0E3C6EFF0E3D6E000E3E6E000E3F6E71
:1001AA00AC8A900EAB6E948E949C9EAA03D0AECF6E
:0601BA0000F0FBD712006B
:1001C000C26AC00EC212C18CC18E48C000F0003697
:1001D000009000360090003600900050C212C2809D
:1001E00080DFC284C2A401D0FDD7C4CF01F0006A71
:0C01F000C3500012000E0112C290120059
:1001FC004E6A4F6A48C050F049C051F0800E491801
:10020C00006E800E005C02E1000E485C0BE2010EF9
:10021C004E6E000E4F6E48500008506E49C051F0A3
:10022C00000E515650C052F051C053F04AC054F019
:10023C004BC055F008DF060E4C6E000E4D6E000ED6
:10024C00006E4D50005C02E14C50000819E24C501D
:10025C004A24E16E4D504B20E26E010E4C5C006E58
:10026C00000E4D58016E00504A24E96E01504B208F
:10027C00EA6EEECFE6FF010E4C5E000E4D5ADFD754
:10028C004AC0E1FF4BC0E2FF200EE66E4E504F100D
:10029C001AE04C6A4D6A4C504A24E96E4D504B2082
:1002AC00EA6EEE50200A03E14C4A4D2AF4D7010EB7
:1002BC004C5E000E4D5A4C504A24E16E4D504B2072
:0802CC00E26E2D0EE66E120039
:1002D4004B6A48C0E9FF49C0EAFFEECF4AF04A50F2
:1002E400000A0DE04AC052F000DF4B2A4B5048246C
:1002F400E96E000E4920EA6EEECF4AF0F0D7120004
:1003040003EC02F0FF0E926E800EC16E330EAF6EE0
:10031400AC8429DF486A52DF00C034F001C035F0F4
:10032400F40E046E010E056EE7DE0A0E026E00C0C6
:1003340036F001C037F0025007E037323632379ECC
:1003440037BC378EFF0FF8D7010E486E37DF00C079
:1003540032F001C033F0F40E046E010E056ECCDEF3
:100364000A0E026E00C029F001C02AF0025007E014
:100374002A3229322A9E2ABC2A8EFF0FF8D736C089
:1003840048F037C049F02B0E4A6E000E4B6E34DF36
:10039400150E486E000E496E9BDF2B0E486E000E44
:1003A400496E96DFD1DE29C048F02AC049F02B0EF1
:1003B4004A6E000E4B6E20DF1F0E486E000E496E13
:1003C40087DF2B0E486E000E496E82DFBDDE060EFF
:1003D4000B6E130E0C6EAD0E0D6E0D2EFED70C2E85
:0E03E400FCD70B2EFAD70000000094D7FFD7ED
:1004060010EE15F0140E006E010E016EF20EF66E71
:0E041600030EF76E000EF86EADEC00F0120053
:0A03F20054656D702031203D20009D
:0A03FC0054656D702032203D200092
:020000040030CA
:0D000100220F0EFF0181FF0FC00FE00F4026
:00000001FF
