:1000000082EF01F00000000000EF00F000000000AF
:0A0010000000000000000000F3D71C
:10001C00086A096A100E0C6E013408360936045051
:10002C00085E0550D8A0053C095ED8B007D0045036
:10003C0008260550D8B0053C0926D8900036013664
:06004C000C2EEAD71200A1
:10005200626A050E625C0AE262506024E16E000E82
:100062006120E26E200EE66E622AF3D762506024AF
:10007200E16E000E6120E26EE66A62066250602462
:10008200636E000E6120646E0A0E046E000E056E31
:100092005EC000F05FC001F0C0DF08C000F009C020
:1000A20001F0300E002663C0E1FF64C0E2FF00C031
:1000B200E6FF0A0E046E000E056E5EC000F05FC021
:1000C20001F0ABDF00C05EF001C05FF0000E01186E
:1000D20002E1000E001801E102D06206CFD7120041
:0C00E2000E0E0D6E0D2EFED70000120059
:0E00EE00ACB202D00000FCD75EC0ADFF120025
:1000FC000B6A0A6A096A00500402F4CF09F0F3CFC4
:10010C0008F001500502F4CF0BF0F3CF0AF00050C9
:10011C000502F3500926F4500A22E86A0B2201501A
:10012C000402F3500926F4500A22E86A0B2208C094
:10013C0000F009C001F00AC002F00BC003F012007D
:0E014C000D0E5E6ECEDF0A0E5E6ECBDF120071
:10015A000900F5CFE6FF0006FBE10106F9E112000E
:10016A00EE0E506E000E516E5E0E526E000E536E03
:10017A00FF0E446EFF0E456E000E466E000E476E71
:10018A00FF0E486EFF0E496E000E4A6E000E4B6E51
:10019A00FF0E4C6EFF0E4D6E000E4E6E000E4F6E31
:1001AA00AC8A900EAB6E948E949C9EAA03D0AECF6E
:0601BA0000F0FBD712006B
:1001C000C26AC00EC212C18CC18E54C000F000368B
:1001D000009000360090003600900050C212C2809D
:1001E00080DFC284C2A401D0FDD7C4CF01F0006A71
:0C01F000C3500012000E0112C290120059
:1001FC005A6A5B6A54C05CF055C05DF0800E5518AD
:10020C00006E800E005C02E1000E545C0BE2010EED
:10021C005A6E000E5B6E545000085C6E55C05DF05B
:10022C00000E5D565CC05EF05DC05FF056C060F0C5
:10023C0057C061F008DF060E586E000E596E000EA6
:10024C00006E5950005C02E15850000819E25850F9
:10025C005624E16E59505720E26E010E585C006E28
:10026C00000E5958016E00505624E96E015057206B
:10027C00EA6EEECFE6FF010E585E000E595ADFD73C
:10028C0056C0E1FF57C0E2FF200EE66E5A505B10DD
:10029C001AE0586A596A58505624E96E595057203A
:1002AC00EA6EEE50200A03E1584A592AF4D7010E9F
:1002BC00585E000E595A58505624E16E595057202A
:0802CC00E26E2D0EE66E120039
:1002D400576A54C0E9FF55C0EAFFEECF56F05650B6
:1002E400000A0DE056C05EF000DF572A5750542430
:1002F400E96E000E5520EA6EEECF56F0F0D71200EC
:100304000DEC02F0FF0E926E800EC16E330EAF6ED6
:10031400AC8429DF546A52DF00C03EF001C03FF0D4
:10032400F40E046E010E056EE7DE0A0E026E00C0C6
:1003340040F001C041F0025007E041324032419E9A
:1003440041BC418EFF0FF8D7010E546E37DF00C059
:1003540042F001C043F0F40E046E010E056ECCDED3
:100364000A0E026E00C035F001C036F0025007E0FC
:1003740036323532369E36BC368EFF0FF8D740C043
:1003840054F041C055F0370E566E000E576E34DFF0
:1003940035C054F036C055F0370E566E000E576E09
:1003A4002BDF150E546E000E556E92DF370E546E11
:1003B400000E556E8DDF1F0E546E000E556E88DFD5
:1003C4002B0E546E000E556E83DF370E546E000EE6
:1003D400556E7EDFB9DE060E0B6E130E0C6EAD0E7F
:1003E4000D6E0D2EFED70C2EFCD70B2EFAD7000067
:0603F400000090D7FFD7C6
:10041A0010EE15F0200E006E010E016EFA0EF66E49
:0E042A00030EF76E000EF86EADEC00F012003F
:0A03FA0054656D702031203D200095
:0C04040020202020262620202020200080
:0A04100054656D702032203D20007D
:020000040030CA
:0D000100220F0EFF0181FF0FC00FE00F4026
:00000001FF
