:100000005BEF01F00000000000EF00F000000000D6
:0A0010000000000000000000F3D71C
:0A001C00210E0D6E0D2EFED712000E
:100026000F0E0C6E470E0D6E0D2EFED70C2EFCD746
:06003600000000001200B2
:06003C00000000001200AC
:1000420037BE02D0819E01D0818E37BC02D0819C06
:1000520001D0818C37BA02D0819A01D0818A37B817
:1000620002D0819801D0818830B002D0818001D045
:1000720081908182E2DF819237B602D0819E01D0E7
:10008200818E37B402D0819C01D0818C37B202D0EC
:10009200819A01D0818A37B002D0819801D08188BB
:1000A20030B002D0818001D081908182C6DF8192FE
:0C00B20030A002D0B7DF01D0B0DF120098
:0C00BE00309036C037F0BEDF30801200FA
:1000CA00AECF01F0ABA202D0AB98AB8801C000F072
:0200DA00120012
:1000DC000FD0800E316E19D0C00E316E16D0940E2A
:1000EC00316E13D0D40E316E10D0800E316E0DD017
:1000FC003150010AEEE03150020AEEE03150030AB1
:10010C00EEE03150040AEEE0F0D73204006E3150CC
:10011C00002600C031F0308000C037F08CDF30900A
:0A012C0033C037F088DF3080120086
:10013600939293909398939A939C939E8192819095
:10014600819E819C819A81986BDF6ADF69DF818A53
:100156008188818270DF819263DF81826CDF819288
:100166005FDF818268DF81925BDF8198818263DF56
:10017600819256DF81825FDF8192819A818E8182B0
:100186005ADF81924DDF819E8188818254DF819280
:100196008198818250DF819243DF81824CDF819298
:1001A6008188818248DF81923BDF8198818243DFAB
:1001B6008192818E818C818A818881823CDF8192C5
:0601C6002FDF3080120063
:1001CC000900F5CFE6FF0006FBE10106F9E112009C
:1001DC000FD0800E316E19D0C00E316E16D0940E29
:1001EC00316E13D0D40E316E10D0800E316E0DD016
:1001FC003150010AEEE03150020AEEE03150030AB0
:10020C00EEE03150040AEEE0F0D73204006E3150CB
:10021C00002600C031F000C037F00DDF3090356A99
:10022C0035503324E96E000E3420EA6EEE520BE0AA
:10023C0035503324E96E000E3420EA6EEECF36F0E2
:0A024C0038DF352AEDD730801200AC
:0A025600000E9EBA010E006E1200A9
:10026000FF0E2B6EFF0E2C6EFF0E2D6EFF0E2E6EF0
:10027000CA0E1F6E000E206E000E216E000E226E42
:10028000560E236E020E246E000E256E000E266E94
:10029000FF0E276EFF0E286E000E296E000E2A6ECE
:1002A000AC8A900EAB6E948E949C9EAA03D0AECF77
:0602B00000F0FBD7120074
:1002B600540E156E450E166E4D0E176E500E186EB8
:1002C600200E196E3D0E1A6E200E1B6E780E1C6ED9
:1002D600780E1D6E1E6A936A948E949C29DF010E19
:1002E600376EACDE0C0E376EA9DE010E316E020ED5
:1002F600326E150E336E000E346E6DDF330EAF6E3A
:10030600AC84ABDF340E0C6EF10E0D6E0D2EFED7E7
:100316000C2EFCD7000000009BDF005215E0D2DE59
:1003260000C02FF0020E316E010E326E00C033F0A7
:10033600D2DE340E0C6EF10E0D6E0D2EFED70C2E87
:10034600FCD70000000007D0020E316E010E326E9F
:0A035600780E336EC0DEE0D7FFD74B
:020000040030CA
:0D000100220F0EFF0181FF0FC00FE00F4026
:00000001FF
