:100000005BEF01F00000000000EF00F000000000D6
:0A0010000000000000000000F3D71C
:0A001C00210E0D6E0D2EFED712000E
:100026000F0E0C6E470E0D6E0D2EFED70C2EFCD746
:06003600000000001200B2
:06003C00000000001200AC
:1000420036BE02D0819E01D0818E36BC02D0819C08
:1000520001D0818C36BA02D0819A01D0818A36B819
:1000620002D0819801D081882FB002D0818001D046
:1000720081908182E2DF819236B602D0819E01D0E8
:10008200818E36B402D0819C01D0818C36B202D0EE
:10009200819A01D0818A36B002D0819801D08188BC
:1000A2002FB002D0818001D081908182C6DF8192FF
:0C00B2002FA002D0B7DF01D0B0DF120099
:0C00BE002F9035C036F0BEDF2F801200FE
:1000CA00AECF01F0ABA202D0AB98AB8801C000F072
:0200DA00120012
:1000DC000FD0800E306E19D0C00E306E16D0940E2C
:1000EC00306E13D0D40E306E10D0800E306E0DD01A
:1000FC003050010AEEE03050020AEEE03050030AB4
:10010C00EEE03050040AEEE0F0D73104006E3050CF
:10011C00002600C030F02F8000C036F08CDF2F900E
:0A012C0032C036F088DF2F80120089
:10013600939293909398939A939C939E8192819095
:10014600819E819C819A81986BDF6ADF69DF818A53
:100156008188818270DF819263DF81826CDF819288
:100166005FDF818268DF81925BDF8198818263DF56
:10017600819256DF81825FDF8192819A818E8182B0
:100186005ADF81924DDF819E8188818254DF819280
:100196008198818250DF819243DF81824CDF819298
:1001A6008188818248DF81923BDF8198818243DFAB
:1001B6008192818E818C818A818881823CDF8192C5
:0601C6002FDF2F80120064
:1001CC000900F5CFE6FF0006FBE10106F9E112009C
:1001DC000FD0800E306E19D0C00E306E16D0940E2B
:1001EC00306E13D0D40E306E10D0800E306E0DD019
:1001FC003050010AEEE03050020AEEE03050030AB3
:10020C00EEE03050040AEEE0F0D73104006E3050CE
:10021C00002600C030F000C036F00DDF2F90346A9D
:10022C0034503224E96E000E3320EA6EEE520BE0AD
:10023C0034503224E96E000E3320EA6EEECF35F0E6
:0A024C0038DF342AEDD72F801200AE
:0A025600000E9EBA010E006E1200A9
:10026000FF0E2A6EFF0E2B6EFF0E2C6EFF0E2D6EF4
:10027000CA0E1E6E000E1F6E000E206E000E216E46
:10028000560E226E020E236E000E246E000E256E98
:10029000FF0E266EFF0E276E000E286E000E296ED2
:1002A000AC8A900EAB6E948E949C9EAA03D0AECF77
:0602B00000F0FBD7120074
:1002B600540E156E650E166E6D0E176E700E186E58
:1002C600200E196E3D0E1A6E200E1B6E200E1C6E31
:1002D6001D6A936A2DDF010E366EB0DE0C0E366E89
:1002E600ADDE010E306E020E316E150E326E000E50
:1002F600336E71DF330EAF6EAC84AFDFA9DF005211
:100306000AE0E0DE00C02EF0020E306E010E316E05
:0A03160000C032F0E0DEF2D7FFD79E
:020000040030CA
:0D000100220F0EFF0181FF0FC00FE00F4026
:00000001FF
