:10000000A6EF01F00000000000EF00F0000000008B
:0A0010000000000000000000F3D71C
:0A001C00210E0D6E0D2EFED712000E
:100026000F0E0C6E470E0D6E0D2EFED70C2EFCD746
:06003600000000001200B2
:06003C00000000001200AC
:1000420043BE02D0819E01D0818E43BC02D0819CEE
:1000520001D0818C43BA02D0819A01D0818A43B8FF
:1000620002D0819801D0818831B002D0818001D044
:1000720081908182E2DF819243B602D0819E01D0DB
:10008200818E43B402D0819C01D0818C43B202D0D4
:10009200819A01D0818A43B002D0819801D08188AF
:1000A20031B002D0818001D081908182C6DF8192FD
:0C00B20031A002D0B7DF01D0B0DF120097
:1000BE00AECF01F0ABA202D0AB98AB8801C000F07E
:0200CE0012001E
:0C00D000319042C043F0B5DF31801200D7
:0A00DC00000E9EBA010E006E120025
:1000E6000FD0800E3A6E19D0C00E3A6E16D0940E0E
:1000F6003A6E13D0D40E3A6E10D0800E3A6E0DD0F2
:100106003A50010AEEE03A50020AEEE03A50030A8B
:10011600EEE03A50040AEEE0F0D73B04006E3A50A7
:10012600002600C03AF000C043F088DF31903E6AF6
:100136003E503C24E96E000E3D20EA6EEE520BE086
:100146003E503C24E96E000E3D20EA6EEECF42F0B2
:0A015600BCDF3E2AEDD73180120015
:10016000939293909398939A939C939E819281906B
:10017000819E819C819A819856DF55DF54DF818A68
:10018000818881825BDF81924EDF818257DF81929D
:100190004ADF818253DF819246DF819881824EDF80
:1001A000819241DF81824ADF8192819A818E8182B0
:1001B00045DF819238DF819E818881823FDF819295
:1001C000819881823BDF81922EDF818237DF8192AD
:1001D0008188818233DF819226DF819881822EDFC0
:1001E0008192818E818C818A8188818227DF8192B0
:0601F0001ADF318012004D
:1001F6000900F5CFE6FF0006FBE10106F9E1120072
:100206000FD0800E3A6E19D0C00E3A6E16D0940EEC
:100216003A6E13D0D40E3A6E10D0800E3A6E0DD0D0
:100226003A50010AEEE03A50020AEEE03A50030A6A
:10023600EEE03A50040AEEE0F0D73B04006E3A5086
:10024600002600C03AF0318000C043F0F7DE31905E
:0A0256003CC043F0F3DE31801200DB
:10026000406A416A3E5241E03E50FF0AD8A43E0631
:1002700035DF0050000A01E1FBD721DF00C03FF06D
:1002800040503A24E16E000E3B20E26E00C0E6FFD3
:10029000402A41503C24E96E000E3D20EA6EEE50AB
:1002A0003F1802E1412A09D0416A3CC0E9FF3DC044
:1002B000EAFFEE503F18D8B4412A41503C24E96E81
:1002C000000E3D20EA6EEE50000A0EE14150405C07
:1002D000006E016A000E015A00503A24E16E01508E
:1002E0003B20E26EE66A06D0BDD73AC0E1FF3BC0D4
:0602F000E2FFE66A1200C5
:1002F600FF0E256EFF0E266EFF0E276EFF0E286E72
:10030600BE0E216E000E226E000E236E000E246EAF
:10031600DC0E2D6E000E2E6E000E2F6E000E306E51
:10032600FF0E296EFF0E2A6E000E2B6E000E2C6E2F
:10033600AC8A900EAB6E948E949C9EAA03D0AECFE0
:0603460000F0FBD71200DD
:10034C006F0E156E6B0E166E176A540E186E650EC8
:10035C00196E6D0E1A6E700E1B6E200E1C6E3D0EFD
:10036C001D6E200E1E6E200E1F6E206A936AF2DE2A
:10037C00010E436E60DE0C0E436E5DDE010E3A6EB6
:10038C00020E3B6E180E3C6E000E3D6EA6DE330E5A
:10039C00AF6EAC84AADF9CDE00521EE0330E3A6EC8
:1003AC00000E3B6E150E3C6E000E3D6E110E3E6E39
:1003BC0051DF020E3A6E010E3B6E330E3C6E000E98
:1003CC003D6E8BDE76DE00C032F0020E3A6E010E10
:0C03DC003B6E00C03CF011DFDED7FFD705
:020000040030CA
:0D000100220F0EFF0181FF0FC00FE00F4026
:00000001FF
